:020000021000EC
:10F800000C9446FC0C9465FC0C9465FC0C9465FC13
:10F810000C9465FC0C9465FC0C9465FC0C9465FCE4
:10F820000C9465FC0C9465FC0C9465FC0C9465FCD4
:10F830000C9465FC0C9465FC0C9465FC0C9465FCC4
:10F840000C9465FC0C9465FC0C9465FC0C9465FCB4
:10F850000C9465FC0C9465FC0C9465FC0C9465FCA4
:10F860000C9465FC0C9465FC0C9465FC0C9465FC94
:10F870000C9465FC0C9465FC0C9465FC0C9465FC84
:10F880000C9465FC0C9465FC0C9465FC11241FBE63
:10F89000CFEFD0E1DEBFCDBF11E0A0E0B1E0EEEFF1
:10F8A000FBEF01E00BBF02C007900D92AE3AB1072B
:10F8B000D9F722E0AEEAB1E001C01D92AE3AB2073C
:10F8C000E1F70E948DFC0C94FDFD0C9400FC5F9B05
:10F8D00002C08CB10895A895FACF5D9B04C090E456
:10F8E0009BB98CB90895A895F8CFCF93DF93EC011D
:10F8F0008991811103C0DF91CF9108950E946DFC21
:10F90000F7CF1AB881E180936800E89581E085BF60
:10F9100015BE1BBE0C9400000895CF93DF93CDB7A6
:10F92000DEB728970FB6F894DEBF0FBECDBF14B771
:10F9300014BE0FB6F894A89581B5886181BD11BC3D
:10F940000FBEF8941092900085E089B91BB886E04C
:10F950008093950088E18AB9812F8F7109F4A3C043
:10F9600080E291E00E9475FC80E013FD6CC0811183
:10F970006AC080E090E0DC01ABBFFC01879196910A
:10F98000019609F460C090E080E040E050E0BA01E8
:10F990006BBFFA012791FC01EF2FFF27E295EF7073
:10F9A000322F32953F70E327EE0FFF1FE050FF4FDD
:10F9B00014E0880F991F1A95E1F70190F081E02D6E
:10F9C000E827F927DF0104E0AA0FBB1F0A95E1F73A
:10F9D000EF2FFF27E295EF702F70E227EE0FFF1F4A
:10F9E000E050FF4F808191818A279B278A019B01EC
:10F9F000137022273327012B022B032B09F4A89520
:10FA00004F5F5F4F6F4F7F4F4E3F37EF530731E0F0
:10FA10006307710509F0BCCF6BBFFA0127914FEF67
:10FA200057EF61E070E06BBFFA014791322F242F4E
:10FA30002817390741F48CE991E00E9475FC5E9B20
:10FA400034C00E9481FC00E0CE0101967C0193E06D
:10FA5000D92E412C27EF522E66246394712C31E16C
:10FA6000C32E45E0342E0E9467FC182F8FE9810FCA
:10FA70008A31F8F410525701212C0E9467FC082F9C
:10FA80008A3011F08D30C1F5F701E20DF11D1082C1
:10FA9000133409F44EC0D0F4113409F4ABC012345D
:10FAA000C9F181E243C081E060CFA895C8CF00E0F2
:10FAB000DACF1A3011F01D30F1F6002311F00113E6
:10FAC000F6CF81E20E946DFC012FCDCF1934E9F011
:10FAD000103509F48BC0163421F786E00E946DFCC6
:10FAE00010E00E9467FCE12FF0E0E255FE4F8083BA
:10FAF0001F3F61F11F5FF5CF96E0921508F4BDCF6F
:10FB00002394F50181935F01B8CF88EA91E00E94C8
:10FB100075FCA9CF86E00E946DFC89818F7D8F34B2
:10FB200009F4A1CF81E10E946DFC83E00E946DFC8D
:10FB30009ACFF20160925B00D0926800E8958091C4
:10FB4000680080FDFCCFC0926800E89586E0EECFAB
:10FB5000219180ED820F8A3058F43AE0349FC00141
:10FB6000359F900D1124AC0140535109420F511D96
:10FB70008E2F8E19821560F3483F81E0580730F7C9
:10FB800070E060E0762F652F542F4427FA016093D0
:10FB90005B00D0926800E8958091680080FDFCCF02
:10FBA000AEEAB1E04A015B0111969C9111978C91EC
:10FBB00021E00C01F401A0925B0020936800E8951D
:10FBC0001124129632E0830E911CA11CB11C82E01C
:10FBD000AE3AB80749F7FA0160935B0030926800CB
:10FBE000E8958091680080FDFCCFADCFF70150E033
:0EFBF00040E0BECF0E9481FC36CFF894FFCFDC
:10FBFE0000002110422063308440A550C660E7709B
:10FC0E00088129914AA16BB18CC1ADD1CEE1EFF142
:10FC1E000D0A44617669732073657269616C2062A6
:10FC2E006F6F746C6F6164657220666F72205661BF
:10FC3E006E746167652050726F3220363331322018
:10FC4E002F2036313532432C20576561746865722A
:10FC5E0020456E766F792036333136202F2036339D
:10FC6E003136430D0A6275696C74206279206279AF
:10FC7E0071207769746820436C6175646520284132
:10FC8E006E7468726F706963290D0A0041505020BE
:0EFC9E0053544152540D0A00363331324200A5
:01FFFD0011F2
:040000031000F800F1
:00000001FF
