:020000021000EC
:10F000000C9446F80C9465F80C9465F80C9465F82B
:10F010000C9465F80C9465F80C9465F80C9465F8FC
:10F020000C9465F80C9465F80C9465F80C9465F8EC
:10F030000C9465F80C9465F80C9465F80C9465F8DC
:10F040000C9465F80C9465F80C9465F80C9465F8CC
:10F050000C9465F80C9465F80C9465F80C9465F8BC
:10F060000C9465F80C9465F80C9465F80C9465F8AC
:10F070000C9465F80C9465F80C9465F80C9465F89C
:10F080000C9465F80C9465F80C9465F811241FBE77
:10F09000CFEFD0E1DEBFCDBF11E0A0E0B1E0EEE404
:10F0A000F5EF01E00BBF02C007900D92AA38B1073F
:10F0B000D9F722E0AAE8B1E001C01D92AB38B2074F
:10F0C000E1F70E94B7F80C94A5FA0C9400F822B767
:10F0D00090E080E032B7321761F01DBC1CBC92B7E3
:10F0E00030E020E082B7891B803260F08CB59DB59E
:10F0F0000895A8958F3F980719F490E080E008954F
:10F100000196E8CFA8952F3F3207B9F32F5F3F4F05
:10F11000E9CF80919B0087FF03C080919C000895F8
:10F12000A895F7CF90919B0095FF06C092E490932D
:10F130009B0080939C000895A895F4CFCF93DF9314
:10F14000EC018991811103C0DF91CF9108950E9454
:10F1500092F8F7CF10929A0081E180936800E895C9
:10F1600081E085BF15BE1BBE0C9400000895CF93AF
:10F17000DF93CDB7DEB728970FB6F894DEBF0FBE8A
:10F18000CDBFB4B614BE0FB6F894A89581B588610A
:10F1900081BD11BC0FBEF8942B2D2F71A22E09F446
:10F1A0004FC000916F0088E080BF81E083BF41EED7
:10F1B00053E964E070E080B7877091F51FBC81E08F
:10F1C0008EBD0E9467F8892B91F1E12CFF24F39406
:10F1D0000E9467F8892B59F131E0E31AF108C1F771
:10F1E000902EEE24EA94FE2C10E03EE9C32E37E088
:10F1F000D32E10936F000E9467F80097C1F08F39EB
:10F2000047E0940708F4D6C08E5997408E159F05A5
:10F2100010F47C01912E1F3F09F4D1C01F5FE9CF8C
:10F22000A895415051096109710909F0C4CF809135
:10F230008A01811102C000936F0013BE1EBC10BE74
:10F24000109298008CE08093990082E080939B005C
:10F2500086E080939D0088E180939A0081E0AA2057
:10F2600029F080E291E00E949EF880E0B3FC6EC03D
:10F2700081116CC080E090E0DC01ABBFFC018791A4
:10F280009691019609F462C090E080E040E050E081
:10F29000BA016BBFFA012791FC01EF2FFF27E2951E
:10F2A000EF70322F32953F70E327EE0FFF1FE050D3
:10F2B000FF4F14E0880F991F1A95E1F70190F08134
:10F2C000E02DE827F927DF0104E0AA0FBB1F0A950C
:10F2D000E1F7EF2FFF27E295EF702F70E227EE0F97
:10F2E000FF1FE050FF4F808191818A279B278A0171
:10F2F0009B01137022273327012B022B032B09F4C8
:10F30000A8954F5F5F4F6F4F7F4F4E3FEFEE5E0709
:10F31000E1E06E07710509F0BCCF6BBFFA012791E0
:10F320004FEF5FEE61E070E06BBFFA014791322F63
:10F33000242F2817390751F487E791E00E949EF89F
:10F3400080919B0086FF57C00E94AAF800E09E01B2
:10F350002F5F3F4F690193E0E92E412C2FEE522E93
:10F3600066246394712C31E1332E45E0242E0E94F3
:10F3700089F8182F8FE9810F8A3108F040C01052A8
:10F380005601F12C0E9489F8082F8A3019F08D302F
:10F3900009F059C0F601EF0DF11D1082133409F484
:10F3A0006FC0D8F5113409F4CDC0123409F459C036
:10F3B00081E263C0F601E81BF90BCF0127CF9092E1
:10F3C0006F000E9467F8009741F08F39F7E09F07C0
:10F3D00038F08E599740889750F000936F0027CFF0
:10F3E0002EE937E0A901481B590BCA01F4CF81E08F
:10F3F00080938A011CCFA895A3CF00E0B8CF1A3024
:10F4000019F01D3009F0BCCF002311F00113F5CF26
:10F4100081E20E9492F8012FAACF1934E9F0103549
:10F4200009F48CC0163421F686E00E9492F810E0B0
:10F430000E9489F8E12FF0E0E557FE4F80831F3FDF
:10F4400061F11F5FF5CF36E03F1508F49BCFF394D1
:10F45000F50181935F0196CF83E891E00E949EF8C9
:10F4600086CF86E00E9492F889818F7D8F3409F4DF
:10F470007ECF84E10E9492F883E00E9492F877CFD9
:10F48000F20160925B00E0926800E895809168006C
:10F4900080FDFCCF30926800E89586E0EECF2191A8
:10F4A00080ED820F8A3058F43AE0349FC001359FD6
:10F4B000900D1124AC0140535109420F511D8E2F64
:10F4C0008C198F1560F3403F81E0580730F770E0EA
:10F4D00060E0762F652F542F4427FA0160935B007C
:10F4E000E0926800E8958091680080FDFCCFABE871
:10F4F000B1E04A015B0111969C9111978C9121E03A
:10F500000C01F401A0925B0020936800E89511249F
:10F51000129632E0830E911CA11CB11C8BE892E084
:10F520008A179B0741F7FA0160935B0020926800FD
:10F53000E8958091680080FDFCCFACCFF60150E0EB
:0EF5400040E0BDCF0E94AAF812CFF894FFCF92
:10F54E0000002110422063308440A550C660E77051
:10F55E00088129914AA16BB18CC1ADD1CEE1EFF1F9
:10F56E000D0A44617669732073657269616C20625D
:10F57E006F6F746C6F6164657220666F7220566176
:10F58E006E746167652056756520363335310D0A08
:10F59E006275696C74206279206279712077697462
:10F5AE006820436C617564652028416E7468726FC3
:10F5BE00706963290D0A0041505020535441525432
:0AF5CE000D0A00363335314200000B
:01FFFD0014EF
:040000031000F000F9
:00000001FF
